{
  "contractName": "BookAd",
  "abi": [
    {
      "constant": true,
      "inputs": [],
      "name": "bookID",
      "outputs": [
        {
          "name": "",
          "type": "uint256"
        }
      ],
      "payable": false,
      "stateMutability": "view",
      "type": "function"
    },
    {
      "inputs": [
        {
          "name": "_bookID",
          "type": "uint256"
        },
        {
          "name": "_bookPrice",
          "type": "uint256"
        }
      ],
      "payable": false,
      "stateMutability": "nonpayable",
      "type": "constructor"
    },
    {
      "anonymous": false,
      "inputs": [
        {
          "indexed": false,
          "name": "buyer",
          "type": "address"
        },
        {
          "indexed": false,
          "name": "money",
          "type": "uint256"
        }
      ],
      "name": "OrderSent",
      "type": "event"
    },
    {
      "anonymous": false,
      "inputs": [
        {
          "indexed": false,
          "name": "_price",
          "type": "uint256"
        }
      ],
      "name": "PriceUpdate",
      "type": "event"
    },
    {
      "anonymous": false,
      "inputs": [
        {
          "indexed": false,
          "name": "_now",
          "type": "uint256"
        }
      ],
      "name": "ShipmentConfirmed",
      "type": "event"
    },
    {
      "anonymous": false,
      "inputs": [
        {
          "indexed": false,
          "name": "_buyer",
          "type": "address"
        },
        {
          "indexed": false,
          "name": "_now",
          "type": "uint256"
        }
      ],
      "name": "OrderCanceled",
      "type": "event"
    },
    {
      "anonymous": false,
      "inputs": [
        {
          "indexed": false,
          "name": "_owner",
          "type": "address"
        }
      ],
      "name": "BookSent",
      "type": "event"
    },
    {
      "constant": false,
      "inputs": [],
      "name": "sendOrder",
      "outputs": [],
      "payable": true,
      "stateMutability": "payable",
      "type": "function"
    },
    {
      "constant": false,
      "inputs": [],
      "name": "cancelOrder",
      "outputs": [],
      "payable": true,
      "stateMutability": "payable",
      "type": "function"
    },
    {
      "constant": false,
      "inputs": [],
      "name": "confirmShipment",
      "outputs": [],
      "payable": true,
      "stateMutability": "payable",
      "type": "function"
    },
    {
      "constant": false,
      "inputs": [],
      "name": "bookSent",
      "outputs": [],
      "payable": false,
      "stateMutability": "nonpayable",
      "type": "function"
    },
    {
      "constant": false,
      "inputs": [
        {
          "name": "_price",
          "type": "uint256"
        }
      ],
      "name": "newPrice",
      "outputs": [],
      "payable": false,
      "stateMutability": "nonpayable",
      "type": "function"
    },
    {
      "constant": true,
      "inputs": [],
      "name": "getPrice",
      "outputs": [
        {
          "name": "",
          "type": "uint256"
        }
      ],
      "payable": false,
      "stateMutability": "view",
      "type": "function"
    },
    {
      "constant": true,
      "inputs": [],
      "name": "getStatus",
      "outputs": [
        {
          "name": "",
          "type": "bool"
        }
      ],
      "payable": false,
      "stateMutability": "view",
      "type": "function"
    }
  ],
  "bytecode": "0x60806040526000600360146101000a81548160ff0219169083151502179055506000600360156101000a81548160ff0219169083151502179055506000600360166101000a81548160ff02191690831515021790555034801561006157600080fd5b506040516040806109bd8339810180604052604081101561008157600080fd5b8101908080519060200190929190805190602001909291905050506000821115156100ab57600080fd5b6000811115156100ba57600080fd5b33600260006101000a81548173ffffffffffffffffffffffffffffffffffffffff021916908373ffffffffffffffffffffffffffffffffffffffff16021790555081600081905550670de0b6b3a764000081026001819055505050610899806101246000396000f3fe60806040526004361061008e576000357c0100000000000000000000000000000000000000000000000000000000900463ffffffff1680634e69d560146100935780636a816548146100c25780637d71192b146100cc57806396bdecb6146100d657806398d5fdca14610101578063c46dc2b01461012c578063fe72ac7f14610143578063feb71d9a1461017e575b600080fd5b34801561009f57600080fd5b506100a8610188565b604051808215151515815260200191505060405180910390f35b6100ca61019f565b005b6100d4610382565b005b3480156100e257600080fd5b506100eb610589565b6040518082815260200191505060405180910390f35b34801561010d57600080fd5b5061011661058f565b6040518082815260200191505060405180910390f35b34801561013857600080fd5b50610141610599565b005b34801561014f57600080fd5b5061017c6004803603602081101561016657600080fd5b81019080803590602001909291905050506106a9565b005b610186610752565b005b6000600360149054906101000a900460ff16905090565b3373ffffffffffffffffffffffffffffffffffffffff16600360009054906101000a900473ffffffffffffffffffffffffffffffffffffffff1673ffffffffffffffffffffffffffffffffffffffff161415156101fb57600080fd5b600360159054906101000a900460ff1615151561021757600080fd5b600066470de4df8200009050600360009054906101000a900473ffffffffffffffffffffffffffffffffffffffff1673ffffffffffffffffffffffffffffffffffffffff166108fc82600154039081150290604051600060405180830381858888f1935050505015801561028f573d6000803e3d6000fd5b50600260009054906101000a900473ffffffffffffffffffffffffffffffffffffffff1673ffffffffffffffffffffffffffffffffffffffff166108fc829081150290604051600060405180830381858888f193505050501580156102f8573d6000803e3d6000fd5b506000600360146101000a81548160ff0219169083151502179055507fafe5d45b77c7cea746dab67e30e6ca60c00cec51787feb121441c48ec20e3e573342604051808373ffffffffffffffffffffffffffffffffffffffff1673ffffffffffffffffffffffffffffffffffffffff1681526020018281526020019250505060405180910390a150565b600360149054906101000a900460ff1615151561039e57600080fd5b3373ffffffffffffffffffffffffffffffffffffffff16600260009054906101000a900473ffffffffffffffffffffffffffffffffffffffff1673ffffffffffffffffffffffffffffffffffffffff16141515156103fb57600080fd5b6001543410151515610475576040517f08c379a00000000000000000000000000000000000000000000000000000000081526004018080602001828103825260138152602001807f496e73756666696369656e742066756e64732e0000000000000000000000000081525060200191505060405180910390fd5b3373ffffffffffffffffffffffffffffffffffffffff166108fc60015434039081150290604051600060405180830381858888f193505050501580156104bf573d6000803e3d6000fd5b5033600360006101000a81548173ffffffffffffffffffffffffffffffffffffffff021916908373ffffffffffffffffffffffffffffffffffffffff1602179055506001600360146101000a81548160ff0219169083151502179055507fda34482470b6ed053ff8260fc9e16711f722d1427833e5b5acd411eef70cadef3334604051808373ffffffffffffffffffffffffffffffffffffffff1673ffffffffffffffffffffffffffffffffffffffff1681526020018281526020019250505060405180910390a1565b60005481565b6000600154905090565b3373ffffffffffffffffffffffffffffffffffffffff16600260009054906101000a900473ffffffffffffffffffffffffffffffffffffffff1673ffffffffffffffffffffffffffffffffffffffff161415156105f557600080fd5b600360149054906101000a900460ff16801561061e5750600360159054906101000a900460ff16155b151561062957600080fd5b6001600360156101000a81548160ff0219169083151502179055507fae71e2af697d19a266a047c7c6aba4699f2c34dc72557a40f737c3b3d228f9ad33604051808273ffffffffffffffffffffffffffffffffffffffff1673ffffffffffffffffffffffffffffffffffffffff16815260200191505060405180910390a1565b3373ffffffffffffffffffffffffffffffffffffffff16600260009054906101000a900473ffffffffffffffffffffffffffffffffffffffff1673ffffffffffffffffffffffffffffffffffffffff1614151561070557600080fd5b670de0b6b3a764000081026001819055507fae46785019700e30375a5d7b4f91e32f8060ef085111f896ebf889450aa2ab5a6001546040518082815260200191505060405180910390a150565b3373ffffffffffffffffffffffffffffffffffffffff16600360009054906101000a900473ffffffffffffffffffffffffffffffffffffffff1673ffffffffffffffffffffffffffffffffffffffff161415156107ae57600080fd5b6001600360166101000a81548160ff021916908315150217905550600260009054906101000a900473ffffffffffffffffffffffffffffffffffffffff1673ffffffffffffffffffffffffffffffffffffffff166108fc6001549081150290604051600060405180830381858888f19350505050158015610833573d6000803e3d6000fd5b507f6f11b8228e5257cfefeea5c512beb5e897422f0b388db63e1fb354828fcb3e24426040518082815260200191505060405180910390a156fea165627a7a72305820a2c7a4bc86e14a9349aab79f466d18c741f63f69a8b749c36f8ad62a1ddfa8fc0029",
  "source": "pragma solidity ^0.5.0;\r\n\r\ncontract BookAd {\r\n    \r\n    // Important variables \r\n    uint public bookID;\r\n    \r\n    uint private bookPrice;\r\n    \r\n    address payable owner;\r\n    \r\n    address payable buyerAddr;\r\n    \r\n    // Is true if book was ordered\r\n    bool private order = false;\r\n    \r\n    // Is true if owner sent the book\r\n    bool private sent = false;\r\n    \r\n    // Is true if the buyer received the book\r\n    bool private shipment = false;\r\n    \r\n    \r\n    modifier isActive {\r\n        require (!order);\r\n        _;\r\n    }\r\n    \r\n    modifier isOwner {\r\n        require (owner == msg.sender);\r\n        _;\r\n    }\r\n    \r\n    modifier isBuyer {\r\n        require (buyerAddr == msg.sender);\r\n        _;\r\n    }\r\n    \r\n    // The smart contract's constructor\r\n    constructor (uint _bookID, uint _bookPrice) public {\r\n        \r\n        // No empty values\r\n        require(_bookID > 0);\r\n        require(_bookPrice > 0);\r\n\r\n        // The seller is the contract's owner\r\n        owner = msg.sender;\r\n        \r\n        // Book information\r\n        bookID = _bookID;\r\n        \r\n        // Price has to be set in Eth\r\n        bookPrice = _bookPrice * 1e18;\r\n\r\n    }\r\n    \r\n    // Event triggered for new order\r\n    event OrderSent(address buyer, uint money);\r\n    \r\n    // Event triggered for price change\r\n    event PriceUpdate(uint _price);\r\n    \r\n    // Event triggered for shipment confirmation\r\n    event ShipmentConfirmed(uint _now);\r\n    \r\n    // Event triggered when order gets canceled\r\n    event OrderCanceled(address _buyer, uint _now);\r\n    \r\n    // Event triggered when book gets sent\r\n    event BookSent(address _owner);\r\n    \r\n    // The function to send purchase orders\r\n    //   requires fee\r\n    //   Payable functions returns just the transaction object, with no custom field.\r\n    //   To get field values listen to OrderSent event.\r\n    function sendOrder() payable public isActive{\r\n        \r\n        // Owner not allowed\r\n        require (owner != msg.sender);\r\n        \r\n        //Value sent to the contract has to match book price\r\n        require (msg.value >= bookPrice, \"Insufficient funds.\");\r\n        \r\n        //Return ether if overpaid\r\n        msg.sender.transfer(msg.value - bookPrice);\r\n        \r\n        // Buyer found\r\n        buyerAddr = msg.sender;\r\n        order = true;\r\n        \r\n        // Trigger the event\r\n        emit OrderSent(msg.sender, msg.value);\r\n\r\n    }\r\n    \r\n    // The function to cancel ongoing order\r\n    // Funds get returned to buyerAddr\r\n    function cancelOrder () payable public isBuyer {\r\n        \r\n        // Order can not be canceled if the book has alredy been sent\r\n        require(!sent);\r\n        \r\n        // Item might be shipping so the buyer has to pay for it \r\n        uint shippingCost = 0.02 ether;\r\n        buyerAddr.transfer(bookPrice - shippingCost);\r\n        \r\n        // Sending money to owner\r\n        owner.transfer(shippingCost);\r\n        \r\n        // Reseting contract\r\n        order = false;\r\n        \r\n        // Trigger the event\r\n        emit OrderCanceled(msg.sender, now);\r\n        \r\n    }\r\n    \r\n    // The function to confirm shipping\r\n    // Once confirmed, funds get transfered - payable\r\n    // Only buyer can confirm it, cannot be called before ordering\r\n    function confirmShipment() payable public isBuyer {\r\n                \r\n        // Update the bool\r\n        shipment = true;\r\n        \r\n        // Funds get transfered to ex owner of the book\r\n        owner.transfer(bookPrice);\r\n        \r\n        // Trigger the event\r\n        emit ShipmentConfirmed(now);\r\n        \r\n    }\r\n    \r\n    \r\n    // Say that book has been shipped\r\n    function bookSent () public isOwner {\r\n        \r\n        // Is there an order?\r\n        require(order && !sent);\r\n        \r\n        // Update the bool\r\n        sent = true;\r\n        \r\n        // Trigger the event\r\n        emit BookSent(msg.sender);\r\n        \r\n    }\r\n    \r\n    \r\n    // Editing book price\r\n    function newPrice (uint _price) public isOwner {\r\n        bookPrice = _price * 1e18;\r\n        \r\n        // Trigger the event\r\n        emit PriceUpdate(bookPrice);\r\n    }   \r\n      \r\n    \r\n    // Price getter\r\n    function getPrice () public view returns (uint) {\r\n        return bookPrice;\r\n    }\r\n    \r\n    // Get status\r\n    function getStatus () public view returns (bool) {\r\n        return order;\r\n    }\r\n}",
  "sourcePath": "C:/Users/Mislav/Desktop/Smart Contract Payment/eth-books/contracts/BookAd.sol",
  "compiler": {
    "name": "solc",
    "version": "0.5.0+commit.1d4f565a.Emscripten.clang"
  },
  "schemaVersion": "3.0.3",
  "updatedAt": "2019-03-21T18:24:47.135Z",
  "devdoc": {
    "methods": {}
  },
  "userdoc": {
    "methods": {}
  }
}