{
  "contractName": "Deal",
  "abi": [
    {
      "constant": true,
      "inputs": [],
      "name": "bookID",
      "outputs": [
        {
          "name": "",
          "type": "uint256"
        }
      ],
      "payable": false,
      "stateMutability": "view",
      "type": "function"
    },
    {
      "inputs": [
        {
          "name": "_bookID",
          "type": "uint256"
        },
        {
          "name": "_bookPrice",
          "type": "uint256"
        }
      ],
      "payable": false,
      "stateMutability": "nonpayable",
      "type": "constructor"
    },
    {
      "anonymous": false,
      "inputs": [
        {
          "indexed": false,
          "name": "buyer",
          "type": "address"
        },
        {
          "indexed": false,
          "name": "money",
          "type": "uint256"
        }
      ],
      "name": "OrderSent",
      "type": "event"
    },
    {
      "anonymous": false,
      "inputs": [
        {
          "indexed": false,
          "name": "_price",
          "type": "uint256"
        }
      ],
      "name": "PriceUpdate",
      "type": "event"
    },
    {
      "anonymous": false,
      "inputs": [
        {
          "indexed": false,
          "name": "_now",
          "type": "uint256"
        }
      ],
      "name": "ShipmentConfirmed",
      "type": "event"
    },
    {
      "anonymous": false,
      "inputs": [
        {
          "indexed": false,
          "name": "_buyer",
          "type": "address"
        },
        {
          "indexed": false,
          "name": "_now",
          "type": "uint256"
        }
      ],
      "name": "OrderCanceled",
      "type": "event"
    },
    {
      "constant": false,
      "inputs": [],
      "name": "sendOrder",
      "outputs": [],
      "payable": true,
      "stateMutability": "payable",
      "type": "function"
    },
    {
      "constant": false,
      "inputs": [],
      "name": "cancelOrder",
      "outputs": [],
      "payable": true,
      "stateMutability": "payable",
      "type": "function"
    },
    {
      "constant": false,
      "inputs": [],
      "name": "confirmShipment",
      "outputs": [],
      "payable": true,
      "stateMutability": "payable",
      "type": "function"
    },
    {
      "constant": true,
      "inputs": [],
      "name": "getPrice",
      "outputs": [
        {
          "name": "",
          "type": "uint256"
        }
      ],
      "payable": false,
      "stateMutability": "view",
      "type": "function"
    },
    {
      "constant": true,
      "inputs": [],
      "name": "getStatus",
      "outputs": [
        {
          "name": "",
          "type": "bool"
        }
      ],
      "payable": false,
      "stateMutability": "view",
      "type": "function"
    },
    {
      "constant": false,
      "inputs": [
        {
          "name": "_price",
          "type": "uint256"
        }
      ],
      "name": "newPrice",
      "outputs": [],
      "payable": false,
      "stateMutability": "nonpayable",
      "type": "function"
    }
  ],
  "bytecode": "0x60806040526000600460146101000a81548160ff0219169083151502179055506000600460156101000a81548160ff02191690831515021790555034801561004657600080fd5b506040516040806108368339810180604052604081101561006657600080fd5b81019080805190602001909291908051906020019092919050505033600360006101000a81548173ffffffffffffffffffffffffffffffffffffffff021916908373ffffffffffffffffffffffffffffffffffffffff16021790555081600081905550670de0b6b3a76400008102600281905550505061074b806100eb6000396000f3fe608060405260043610610083576000357c0100000000000000000000000000000000000000000000000000000000900463ffffffff1680634e69d560146100885780636a816548146100b75780637d71192b146100c157806396bdecb6146100cb57806398d5fdca146100f6578063fe72ac7f14610121578063feb71d9a1461015c575b600080fd5b34801561009457600080fd5b5061009d610166565b604051808215151515815260200191505060405180910390f35b6100bf61017d565b005b6100c9610344565b005b3480156100d757600080fd5b506100e061054b565b6040518082815260200191505060405180910390f35b34801561010257600080fd5b5061010b610551565b6040518082815260200191505060405180910390f35b34801561012d57600080fd5b5061015a6004803603602081101561014457600080fd5b810190808035906020019092919050505061055b565b005b610164610604565b005b6000600460149054906101000a900460ff16905090565b3373ffffffffffffffffffffffffffffffffffffffff16600460009054906101000a900473ffffffffffffffffffffffffffffffffffffffff1673ffffffffffffffffffffffffffffffffffffffff161415156101d957600080fd5b600066470de4df8200009050600460009054906101000a900473ffffffffffffffffffffffffffffffffffffffff1673ffffffffffffffffffffffffffffffffffffffff166108fc82600254039081150290604051600060405180830381858888f19350505050158015610251573d6000803e3d6000fd5b50600360009054906101000a900473ffffffffffffffffffffffffffffffffffffffff1673ffffffffffffffffffffffffffffffffffffffff166108fc829081150290604051600060405180830381858888f193505050501580156102ba573d6000803e3d6000fd5b506000600460146101000a81548160ff0219169083151502179055507fafe5d45b77c7cea746dab67e30e6ca60c00cec51787feb121441c48ec20e3e573342604051808373ffffffffffffffffffffffffffffffffffffffff1673ffffffffffffffffffffffffffffffffffffffff1681526020018281526020019250505060405180910390a150565b600460149054906101000a900460ff1615151561036057600080fd5b3373ffffffffffffffffffffffffffffffffffffffff16600360009054906101000a900473ffffffffffffffffffffffffffffffffffffffff1673ffffffffffffffffffffffffffffffffffffffff16141515156103bd57600080fd5b6002543410151515610437576040517f08c379a00000000000000000000000000000000000000000000000000000000081526004018080602001828103825260138152602001807f496e73756666696369656e742066756e64732e0000000000000000000000000081525060200191505060405180910390fd5b3373ffffffffffffffffffffffffffffffffffffffff166108fc60025434039081150290604051600060405180830381858888f19350505050158015610481573d6000803e3d6000fd5b5033600460006101000a81548173ffffffffffffffffffffffffffffffffffffffff021916908373ffffffffffffffffffffffffffffffffffffffff1602179055506001600460146101000a81548160ff0219169083151502179055507fda34482470b6ed053ff8260fc9e16711f722d1427833e5b5acd411eef70cadef3334604051808373ffffffffffffffffffffffffffffffffffffffff1673ffffffffffffffffffffffffffffffffffffffff1681526020018281526020019250505060405180910390a1565b60005481565b6000600254905090565b3373ffffffffffffffffffffffffffffffffffffffff16600360009054906101000a900473ffffffffffffffffffffffffffffffffffffffff1673ffffffffffffffffffffffffffffffffffffffff161415156105b757600080fd5b670de0b6b3a764000081026002819055507fae46785019700e30375a5d7b4f91e32f8060ef085111f896ebf889450aa2ab5a6002546040518082815260200191505060405180910390a150565b3373ffffffffffffffffffffffffffffffffffffffff16600460009054906101000a900473ffffffffffffffffffffffffffffffffffffffff1673ffffffffffffffffffffffffffffffffffffffff1614151561066057600080fd5b6001600460156101000a81548160ff021916908315150217905550600360009054906101000a900473ffffffffffffffffffffffffffffffffffffffff1673ffffffffffffffffffffffffffffffffffffffff166108fc6002549081150290604051600060405180830381858888f193505050501580156106e5573d6000803e3d6000fd5b507f6f11b8228e5257cfefeea5c512beb5e897422f0b388db63e1fb354828fcb3e24426040518082815260200191505060405180910390a156fea165627a7a723058202db485f604fdefb9c992468b8428c579a811e7c7e694faeb1e93b422466b6f7f0029",
  "source": "pragma solidity ^0.5.0;\r\n\r\ncontract Deal {\r\n    \r\n    // Important variables \r\n    uint public bookID;\r\n    \r\n    string bookName;\r\n    \r\n    uint private bookPrice;\r\n    \r\n    address payable owner;\r\n    \r\n    address payable buyerAddr;\r\n    \r\n    // Is true if book was ordered\r\n    bool private order = false;\r\n    \r\n    // Is true if the buyer received the book\r\n    bool private shipment = false;\r\n\r\n    \r\n    modifier isActive {\r\n        require (!order);\r\n        _;\r\n    }\r\n    \r\n    modifier isOwner {\r\n        require (owner == msg.sender);\r\n        _;\r\n    }\r\n    \r\n    modifier isBuyer {\r\n        require (buyerAddr == msg.sender);\r\n        _;\r\n    }\r\n    \r\n    // The smart contract's constructor\r\n    constructor (uint _bookID, uint _bookPrice) public {\r\n    \r\n        // The seller is the contract's owner\r\n        owner = msg.sender;\r\n        \r\n        // Book information\r\n        bookID = _bookID;\r\n        \r\n        // Price has to be set in Eth\r\n        bookPrice = _bookPrice * 1e18;\r\n\r\n    }\r\n    \r\n    // Event triggered for new order\r\n    event OrderSent(address buyer, uint money);\r\n    \r\n    // Event triggered for price change\r\n    event PriceUpdate(uint _price);\r\n    \r\n    // Event triggered for shipment confirmation\r\n    event ShipmentConfirmed(uint _now);\r\n    \r\n    // Event triggered when order gets canceled\r\n    event OrderCanceled(address _buyer, uint _now);\r\n    \r\n    // The function to send purchase orders\r\n    //   requires fee\r\n    //   Payable functions returns just the transaction object, with no custom field.\r\n    //   To get field values listen to OrderSent event.\r\n    function sendOrder() payable public isActive{\r\n        \r\n        // Owner not allowed\r\n        require (owner != msg.sender);\r\n        \r\n        //Value sent to the contract has to match book price\r\n        require (msg.value >= bookPrice, \"Insufficient funds.\");\r\n        \r\n        //Return ether if overpaid\r\n        msg.sender.transfer(msg.value - bookPrice);\r\n        \r\n        // Buyer found\r\n        buyerAddr = msg.sender;\r\n        order = true;\r\n        \r\n        // Trigger the event\r\n        emit OrderSent(msg.sender, msg.value);\r\n\r\n    }\r\n    \r\n    // The function to cancel ongoing order\r\n    // Funds get returned to buyerAddr\r\n    function cancelOrder () payable public isBuyer {\r\n        \r\n        // Item might be shipping so the buyer has to pay for it \r\n        uint shippingCost = 0.02 ether;\r\n        buyerAddr.transfer(bookPrice - shippingCost);\r\n        \r\n        // Sending money to owner\r\n        owner.transfer(shippingCost);\r\n        \r\n        // Reseting contract\r\n        order = false;\r\n        \r\n        // Trigger the event\r\n        emit OrderCanceled(msg.sender, now);\r\n        \r\n    }\r\n    \r\n    // The function to confirm shipping\r\n    // Once confirmed, funds get transfered - payable\r\n    // Only buyer can confirm it, cannot be called before ordering\r\n    function confirmShipment() payable public isBuyer {\r\n        \r\n        // Update the bool\r\n        shipment = true;\r\n        \r\n        // Funds get transfered to ex owner of the book\r\n        owner.transfer(bookPrice);\r\n        \r\n        // Trigger the event\r\n        emit ShipmentConfirmed(now);\r\n        \r\n    }\r\n    \r\n    \r\n    // Price getter\r\n    function getPrice () public view returns (uint) {\r\n        return bookPrice;\r\n    }\r\n    \r\n    // Get status\r\n    function getStatus () public view returns (bool) {\r\n        return order;\r\n    }\r\n    \r\n    // Editing book price\r\n    function newPrice (uint _price) public isOwner {\r\n        bookPrice = _price * 1e18;\r\n        \r\n        // Trigger the event\r\n        emit PriceUpdate(bookPrice);\r\n    }    \r\n    \r\n    \r\n}",
  "sourcePath": "C:/Users/Mislav/Desktop/Smart Contract Payment/eth-books/contracts/BookAd.sol",
  "compiler": {
    "name": "solc",
    "version": "0.5.0+commit.1d4f565a.Emscripten.clang"
  },
  "schemaVersion": "3.0.3",
  "updatedAt": "2019-03-19T16:29:27.997Z",
  "devdoc": {
    "methods": {}
  },
  "userdoc": {
    "methods": {}
  }
}